{
  "contractName": "School",
  "abi": [
    {
      "inputs": [
        {
          "name": "_name",
          "type": "string"
        },
        {
          "name": "_administrator",
          "type": "address"
        }
      ],
      "payable": false,
      "stateMutability": "nonpayable",
      "type": "constructor"
    },
    {
      "constant": false,
      "inputs": [
        {
          "name": "_title",
          "type": "string"
        },
        {
          "name": "_description",
          "type": "string"
        }
      ],
      "name": "createInk",
      "outputs": [],
      "payable": false,
      "stateMutability": "nonpayable",
      "type": "function"
    },
    {
      "constant": true,
      "inputs": [],
      "name": "getDetails",
      "outputs": [
        {
          "name": "",
          "type": "string"
        },
        {
          "name": "",
          "type": "address"
        }
      ],
      "payable": false,
      "stateMutability": "view",
      "type": "function"
    },
    {
      "constant": true,
      "inputs": [],
      "name": "returnInks",
      "outputs": [
        {
          "name": "",
          "type": "address[]"
        }
      ],
      "payable": false,
      "stateMutability": "view",
      "type": "function"
    }
  ],
  "bytecode": "0x608060405234801561001057600080fd5b506040516111b33803806111b38339810180604052604081101561003357600080fd5b81019080805164010000000081111561004b57600080fd5b8281019050602081018481111561006157600080fd5b815185600182028301116401000000008211171561007e57600080fd5b50509291906020018051906020019092919050505081600190805190602001906100a99291906100f2565b5080600260006101000a81548173ffffffffffffffffffffffffffffffffffffffff021916908373ffffffffffffffffffffffffffffffffffffffff1602179055505050610197565b828054600181600116156101000203166002900490600052602060002090601f016020900481019282601f1061013357805160ff1916838001178555610161565b82800160010185558215610161579182015b82811115610160578251825591602001919060010190610145565b5b50905061016e9190610172565b5090565b61019491905b80821115610190576000816000905550600101610178565b5090565b90565b61100d806101a66000396000f3fe608060405260043610610057576000357c0100000000000000000000000000000000000000000000000000000000900463ffffffff168063bdde6e5f1461005c578063c26bae28146100c8578063fbbf93a014610227575b600080fd5b34801561006857600080fd5b506100716102ea565b6040518080602001828103825283818151815260200191508051906020019060200280838360005b838110156100b4578082015181840152602081019050610099565b505050509050019250505060405180910390f35b3480156100d457600080fd5b50610225600480360360408110156100eb57600080fd5b810190808035906020019064010000000081111561010857600080fd5b82018360208201111561011a57600080fd5b8035906020019184600183028401116401000000008311171561013c57600080fd5b91908080601f016020809104026020016040519081016040528093929190818152602001838380828437600081840152601f19601f8201169050808301925050505050505091929192908035906020019064010000000081111561019f57600080fd5b8201836020820111156101b157600080fd5b803590602001918460018302840111640100000000831117156101d357600080fd5b91908080601f016020809104026020016040519081016040528093929190818152602001838380828437600081840152601f19601f820116905080830192505050505050509192919290505050610378565b005b34801561023357600080fd5b5061023c61051d565b60405180806020018373ffffffffffffffffffffffffffffffffffffffff1673ffffffffffffffffffffffffffffffffffffffff168152602001828103825284818151815260200191508051906020019080838360005b838110156102ae578082015181840152602081019050610293565b50505050905090810190601f1680156102db5780820380516001836020036101000a031916815260200191505b50935050505060405180910390f35b6060600080548060200260200160405190810160405280929190818152602001828054801561036e57602002820191906000526020600020905b8160009054906101000a900473ffffffffffffffffffffffffffffffffffffffff1673ffffffffffffffffffffffffffffffffffffffff1681526020019060010190808311610324575b5050505050905090565b60008282336103856105ea565b8080602001806020018473ffffffffffffffffffffffffffffffffffffffff1673ffffffffffffffffffffffffffffffffffffffff168152602001838103835286818151815260200191508051906020019080838360005b838110156103f85780820151818401526020810190506103dd565b50505050905090810190601f1680156104255780820380516001836020036101000a031916815260200191505b50838103825285818151815260200191508051906020019080838360005b8381101561045e578082015181840152602081019050610443565b50505050905090810190601f16801561048b5780820380516001836020036101000a031916815260200191505b5095505050505050604051809103906000f0801580156104af573d6000803e3d6000fd5b50905060008190806001815401808255809150509060018203906000526020600020016000909192909190916101000a81548173ffffffffffffffffffffffffffffffffffffffff021916908373ffffffffffffffffffffffffffffffffffffffff16021790555050505050565b606060006001600260009054906101000a900473ffffffffffffffffffffffffffffffffffffffff16818054600181600116156101000203166002900480601f0160208091040260200160405190810160405280929190818152602001828054600181600116156101000203166002900480156105db5780601f106105b0576101008083540402835291602001916105db565b820191906000526020600020905b8154815290600101906020018083116105be57829003601f168201915b50505050509150915091509091565b6040516109e7806105fb8339019056fe608060405234801561001057600080fd5b506040516109e73803806109e78339810180604052606081101561003357600080fd5b81019080805164010000000081111561004b57600080fd5b8281019050602081018481111561006157600080fd5b815185600182028301116401000000008211171561007e57600080fd5b5050929190602001805164010000000081111561009a57600080fd5b828101905060208101848111156100b057600080fd5b81518560018202830111640100000000821117156100cd57600080fd5b50509291906020018051906020019092919050505082600090805190602001906100f8929190610159565b50816001908051906020019061010f929190610159565b5080600260006101000a81548173ffffffffffffffffffffffffffffffffffffffff021916908373ffffffffffffffffffffffffffffffffffffffff1602179055505050506101fe565b828054600181600116156101000203166002900490600052602060002090601f016020900481019282601f1061019a57805160ff19168380011785556101c8565b828001600101855582156101c8579182015b828111156101c75782518255916020019190600101906101ac565b5b5090506101d591906101d9565b5090565b6101fb91905b808211156101f75760008160009055506001016101df565b5090565b90565b6107da8061020d6000396000f3fe608060405260043610610057576000357c0100000000000000000000000000000000000000000000000000000000900463ffffffff168063469c81101461005c57806386f79edb14610124578063fbbf93a014610212575b600080fd5b34801561006857600080fd5b506101226004803603602081101561007f57600080fd5b810190808035906020019064010000000081111561009c57600080fd5b8201836020820111156100ae57600080fd5b803590602001918460018302840111640100000000831117156100d057600080fd5b91908080601f016020809104026020016040519081016040528093929190818152602001838380828437600081840152601f19601f820116905080830192505050505050509192919290505050610348565b005b34801561013057600080fd5b5061015d6004803603602081101561014757600080fd5b8101908080359060200190929190505050610427565b604051808473ffffffffffffffffffffffffffffffffffffffff1673ffffffffffffffffffffffffffffffffffffffff16815260200180602001838152602001828103825284818151815260200191508051906020019080838360005b838110156101d55780820151818401526020810190506101ba565b50505050905090810190601f1680156102025780820380516001836020036101000a031916815260200191505b5094505050505060405180910390f35b34801561021e57600080fd5b50610227610558565b6040518080602001806020018581526020018473ffffffffffffffffffffffffffffffffffffffff1673ffffffffffffffffffffffffffffffffffffffff168152602001838103835287818151815260200191508051906020019080838360005b838110156102a3578082015181840152602081019050610288565b50505050905090810190601f1680156102d05780820380516001836020036101000a031916815260200191505b50838103825286818151815260200191508051906020019080838360005b838110156103095780820151818401526020810190506102ee565b50505050905090810190601f1680156103365780820380516001836020036101000a031916815260200191505b50965050505050505060405180910390f35b6103506106d1565b6060604051908101604052803373ffffffffffffffffffffffffffffffffffffffff1681526020018381526020014281525090506003819080600181540180825580915050906001820390600052602060002090600302016000909192909190915060008201518160000160006101000a81548173ffffffffffffffffffffffffffffffffffffffff021916908373ffffffffffffffffffffffffffffffffffffffff1602179055506020820151816001019080519060200190610415929190610709565b50604082015181600201555050505050565b60006060600060038481548110151561043c57fe5b906000526020600020906003020160000160009054906101000a900473ffffffffffffffffffffffffffffffffffffffff1660038581548110151561047d57fe5b906000526020600020906003020160010160038681548110151561049d57fe5b906000526020600020906003020160020154818054600181600116156101000203166002900480601f0160208091040260200160405190810160405280929190818152602001828054600181600116156101000203166002900480156105445780601f1061051957610100808354040283529160200191610544565b820191906000526020600020905b81548152906001019060200180831161052757829003601f168201915b505050505091509250925092509193909250565b60608060008060006001600380549050600260009054906101000a900473ffffffffffffffffffffffffffffffffffffffff16838054600181600116156101000203166002900480601f0160208091040260200160405190810160405280929190818152602001828054600181600116156101000203166002900480156106205780601f106105f557610100808354040283529160200191610620565b820191906000526020600020905b81548152906001019060200180831161060357829003601f168201915b50505050509350828054600181600116156101000203166002900480601f0160208091040260200160405190810160405280929190818152602001828054600181600116156101000203166002900480156106bc5780601f10610691576101008083540402835291602001916106bc565b820191906000526020600020905b81548152906001019060200180831161069f57829003601f168201915b50505050509250935093509350935090919293565b606060405190810160405280600073ffffffffffffffffffffffffffffffffffffffff16815260200160608152602001600081525090565b828054600181600116156101000203166002900490600052602060002090601f016020900481019282601f1061074a57805160ff1916838001178555610778565b82800160010185558215610778579182015b8281111561077757825182559160200191906001019061075c565b5b5090506107859190610789565b5090565b6107ab91905b808211156107a757600081600090555060010161078f565b5090565b9056fea165627a7a7230582012503de25bb87fda3459b0ef504d6018b5cf45755701d55809f98164b3331b430029a165627a7a7230582018eb36bc8810378dacebf4d6947c0b1fdba2f346dad4bdcbc4ed57e2474c23e40029",
  "source": "pragma solidity ^0.5.0;\nimport \"./Ink.sol\";\n\ncontract School {\n    address[] deployedInks;\n    string name;\n    address administrator;\n\n    constructor(string memory _name, address _administrator) public {\n        name = _name;\n        administrator = _administrator;\n    }\n\n    function createInk(string memory _title, string memory _description) public {\n        address newInk = address(new Ink(_title, _description, msg.sender));\n        deployedInks.push(newInk);\n    }\n\n    function getDetails() public view returns(string memory, address) {\n        return (name, administrator);\n    }\n\n    function returnInks() public view returns(address[] memory) {\n        return deployedInks;\n    }\n}\n",
  "sourcePath": "/Users/jackieni/dev/hackathon/invisible-ink/invisible-ink-server/contracts/School.sol",
  "compiler": {
    "name": "solc",
    "version": "0.5.0+commit.1d4f565a.Emscripten.clang"
  },
  "schemaVersion": "3.0.11",
  "updatedAt": "2020-02-22T19:08:06.658Z",
  "devdoc": {
    "methods": {}
  },
  "userdoc": {
    "methods": {}
  }
}